:020000040800F2
:100000000000022049650008A50C0008A70C0008A4
:10001000A90C0008AB0C0008AD0C000800000000A3
:10002000000000000000000000000000AF0C00080D
:10003000B10C000800000000B30C0008B50C00086B
:100040009965000899650008996500089965000898
:100050009965000899650008996500089965000888
:100060009965000899650008996500089965000878
:100070009965000899650008996500089965000868
:100080009965000899650008996500089965000858
:100090009965000899650008996500089965000848
:1000A0009965000899650008996500089965000838
:1000B0009965000899650008996500089965000828
:1000C000996500089965000899650008BD0C00084D
:1000D0009965000899650008CD0C0008DD0C000842
:1000E00099650008996500080000000099650008FE
:1000F00099650008996500089965000899650008E8
:1001000099650008996500089965000899650008D7
:1001100099650008996500089965000899650008C7
:1001200099650008996500089965000899650008B7
:1001300099650008996500089965000899650008A7
:1001400000000000000000000000000000000000AF
:100150009965000899650008996500089965000887
:100160009965000899650008996500089965000877
:100170009965000899650008996500089965000867
:100180009965000899650008996500089965000857
:100190009965000899650008996500089965000847
:1001A0009965000899650008996500089965000837
:1001B0009965000899650008996500089965000827
:1001C0009965000899650008996500089965000817
:1001D0009965000899650008996500089965000807
:1001E00099650008996500089965000899650008F7
:1001F00099650008996500089965000899650008E7
:1002000099650008996500089965000899650008D6
:1002100099650008996500089965000899650008C6
:1002200099650008996500089965000800000000BC
:1002300099650008996500080000000099650008AC
:100240009965000899650008996500089965000896
:100250009965000899650008996500089965000886
:100260009965000899650008996500089965000876
:10027000996500089965000899650008000000006C
:10028000996500089965000899650008000000005C
:08029000000000009965000860
:1002980010B5054C237833B9044B13B10448AFF3B8
:1002A80000800123237010BDD00000200000000052
:1002B800F465000808B5034B1BB103490348AFF3C5
:1002C800008008BD00000000D4000020F46500088C
:1002D800034613F8012B002AFBD1181A013870477E
:1002E80053B94AB9002908BF00281CBF4FF0FF3195
:1002F8004FF0FF3000F074B9ADF1080C6DE904CE91
:1003080000F006F8DDF804E0DDE9022304B07047E8
:100318002DE9F047089D04468E46002B4DD18A42B0
:10032800944669D9B2FA82F252B101FA02F3C2F1E3
:10033800200120FA01F10CFA02FC41EA030E944074
:100348004FEA1C48210CBEFBF8F61FFA8CF708FB95
:1003580016E341EA034306FB07F199420AD91CEB6D
:10036800030306F1FF3080F01F81994240F21C819F
:10037800023E63445B1AA4B2B3FBF8F008FB1033E7
:1003880044EA034400FB07F7A7420AD91CEB04041C
:1003980000F1FF3380F00A81A74240F207816444EC
:1003A800023840EA0640E41B00261DB1D440002371
:1003B800C5E900433146BDE8F0878B4209D9002DD5
:1003C80000F0EF800026C5E9000130463146BDE85F
:1003D800F087B3FA83F6002E4AD18B4202D38242C9
:1003E80000F2F980841A61EB030301209E46002D78
:1003F800E0D0C5E9004EDDE702B9FFDEB2FA82F2CD
:10040800002A40F09280A1EB0C014FEA1C471FFA2A
:100418008CFE0126200CB1FBF7F307FB131140EA11
:1004280001410EFB03F0884208D91CEB010103F1DE
:10043800FF3802D2884200F2CB804346091AA4B2A0
:10044800B1FBF7F007FB101144EA01440EFB00FE74
:10045800A64508D91CEB040400F1FF3102D2A645D9
:1004680000F2BB800846A4EB0E0440EA03409CE778
:10047800C6F12007B34022FA07FC4CEA030C20FA25
:1004880007F401FA06F31C43F9404FEA1C4900FA45
:1004980006F3B1FBF9F8200C1FFA8CFE09FB1811C2
:1004A80040EA014108FB0EF0884202FA06F20BD935
:1004B8001CEB010108F1FF3A80F08880884240F285
:1004C8008580A8F102086144091AA4B2B1FBF9F0C9
:1004D80009FB101144EA014100FB0EFE8E4508D9C4
:1004E8001CEB010100F1FF346CD28E456AD9023849
:1004F800614440EA0840A0FB0294A1EB0E01A1422E
:10050800C846A64656D353D05DB1B3EB080261EB9B
:100518000E0101FA07F722FA06F3F1401F43C5E975
:10052800007100263146BDE8F087C2F12003D840AB
:100538000CFA02FC21FA03F3914001434FEA1C47ED
:100548001FFA8CFEB3FBF7F007FB10360B0C43EADF
:10055800064300FB0EF69E4204FA02F408D91CEB8F
:10056800030300F1FF382FD29E422DD9023863448D
:100578009B1B89B2B3FBF7F607FB163341EA03412D
:1005880006FB0EF38B4208D91CEB010106F1FF387C
:1005980016D28B4214D9023E6144C91A46EA004673
:1005A80038E72E46284605E70646E3E61846F8E605
:1005B8004B45A9D2B9EB020864EB0C0E0138A3E74E
:1005C8004646EAE7204694E74046D1E7D0467BE72F
:1005D800023B614432E7304609E76444023842E7A7
:1005E800704700BF2DE9F0418CB0002407940894AF
:1005F80009940A940B944F4BD3F8E02042F004027C
:10060800C3F8E020D3F8E02002F004020092009A38
:10061800D3F8E02042F08002C3F8E020D3F8E020CD
:1006280002F080020192019AD3F8E02042F0010220
:10063800C3F8E020D3F8E02002F001020292029A07
:10064800D3F8E02042F00202C3F8E020D3F8E0201B
:1006580002F002020392039AD3F8E02042F0080263
:10066800C3F8E020D3F8E02002F008020492049ACC
:10067800D3F8E02042F04002C3F8E020D3F8E020AD
:1006880002F040020592059AD3F8E02042F01002E9
:10069800C3F8E020D3F8E03003F010030693069B7C
:1006A800DFF8A480224644F20101404602F0E8FF48
:1006B800214F22464FF48061384602F0E1FF1F4E79
:1006C80022460221304602F0DBFF4FF40053079325
:1006D8000894099407A91A4802F0C2FE44F20103DB
:1006E80007930125089509940A9407A9404602F042
:1006F800B7FE4FF480630793089509940A9407A9F5
:10070800384602F0ADFE802307934FF48813089310
:10071800099407A90B4802F0A3FE02230793089542
:1007280009940A9407A9304602F09AFE0CB0BDE875
:10073800F08100BF00440258000C02580010025813
:10074800000802580018025800040258034B1A689F
:1007580000235362536A8342FCD37047500B002036
:1007680008B5014641F288330322034803F080FCB0
:100778000320FFF7EBFF08BDC80A002000B583B0CF
:10078800F8238DF8043000F0F0038DF805300001EF
:100798008DF8060001A8FFF7E3FF03B05DF804FB3E
:1007A80000B583B0FA238DF8043000F0F0038DF81B
:1007B800053000018DF8060001A8FFF7D1FF03B04E
:1007C8005DF804FBF8B5064600270CE007F1600564
:1007D80088240FE05D1CF05CFFF7E2FF01342B4634
:1007E8000F2CF7DD01373F2F13DC1F2FEEDC07F14D
:1007F800800580243620FFF7C1FFE8B2FFF7BEFF6F
:100808002046FFF7BBFF3220FFF7B8FF3B0100246B
:10081800E6E73420FFF7B2FF3620FFF7AFFFF8BD59
:1008280008B53020FFF7AAFF0C20FFF7A7FF01202B
:10083800FFF7A4FF0620FFF7A1FF08BD08B50120B8
:10084800FFF79CFF012003F093FA08BD08B5026882
:10085800114B9A4200D008BD104A13681049087815
:100868001049C85401331360B3F5806F02DB0E4B97
:1008780002221A700C4B1B78022B05D00122084962
:100888000A4805F0D1FAE6E7074B03221A70034B32
:1008980000221A60F2E700BF004400403005002043
:1008A800F4040020F4000020F50400209C0B002034
:1008B80072B6FEE710B51448144B0360144B0022BF
:1008C8001A7080215970E1219970DA701A715A7181
:1008D8004360012303720F4BC3600F4B036140F267
:1008E800F453436100F0C4FE58B90C4C382200217F
:1008F800204605F073FE212323604FF440336361E3
:1009080010BDFFF7D5FF00BF34050020008002406E
:10091800EC0000207000002010000020F8040020E7
:1009280008B51548154B03604FF4800343604FF436
:10093800003383600723C3600023036143614FF0E2
:10094800806282614FF0A042C261036243628362A7
:10095800C3624FF0804242638363C36303644364AA
:100968008364C36403654365836503F0B9FA00B91A
:1009780008BDFFF79DFF00BFC80A002000300140F6
:1009880008B51548154B03604FF4E1234360002375
:100998008360C36003610C2242618361C3610362A7
:1009A8004362836205F06FF970B900210A4805F0C7
:1009B800A9FA58B90021084805F0C9FA40B906480B
:1009C80005F081FA30B908BDFFF772FFFFF770FF35
:1009D800FFF76EFFFFF76CFF9C0B00200044004000
:1009E80008B51548154B03604FF4E1334360002305
:1009F8008360C36003610C2242618361C361036247
:100A08004362836205F03FF970B900210A4805F096
:100A180079FA58B90021084805F099FA40B906480A
:100A280005F051FA30B908BDFFF742FFFFF740FF64
:100A3800FFF73EFFFFF73CFF300C00200048004066
:100A480008B50B480B4B0360092303710222C271DE
:100A580000238371427201228272C372037342734C
:100A68008273C37305F098FA00B908BDFFF720FF39
:100A7800E40500200000084000B589B00023049375
:100A88000593069307930193029303931448154A19
:100A9800026040F28F12426083604FF6FF72C260BC
:100AA80003614361836103F077FE98B94FF4805383
:100AB800049304A90A4803F0ADFE68B90023019322
:100AC8000293039301A9064803F040FF30B909B027
:100AD8005DF804FBFFF7ECFEFFF7EAFEFFF7E8FE20
:100AE800500B00200000014000B59DB04C220021B1
:100AF80009A805F073FD2022002101A805F06EFD6C
:100B0800022003F09BF800230093254BDA6A22F0B9
:100B18000102DA62DB6A03F001030093214B9A6950
:100B280042F440429A619B6903F440430093009B5E
:100B38001C4B9B6913F4005FFAD0012209924FF411
:100B480080330A930223129313931492642215920A
:100B580016930D22179218930C23199300231A93B6
:100B68001B9309A800F03CFEB0B93F23019303236F
:100B780002930023039308230493402305930693C9
:100B88004FF4806207920893022101A801F07CFAD1
:100B980020B91DB05DF804FBFFF78AFEFFF788FE59
:100BA800000400580048025830B587B003F0A0F898
:100BB800FFF79AFFFFF716FDFFF77CFEFFF7B0FE81
:100BC800FFF7DEFEFFF70CFFFFF73AFFFFF754FFD2
:100BD8002A4803F013FD012229492A4805F024F97F
:100BE800FFF71EFE642003F0C3F801AC264D0FCDBD
:100BF8000FC42B682370002401A8FFF769FBA042EB
:100C080008D904F118036B4413F8140CFFF7C8FD56
:100C18000134F1E70C20FFF7B1FD01224FF48041C8
:100C28001A4802F02DFD4FF4FA7003F0A1F80120E4
:100C3800FFF7A4FD642003F09BF8154B009303E035
:100C4800144B1B78032B10D0124B1B78002BF7D1B9
:100C58000120FFF77BFD642303226946094804F05D
:100C680045FF0C4B01221A70EAE7FFF7E7FD0A4837
:100C7800FFF7A8FD074B00221A70E5E7500B00208C
:100C8800F40400209C0B00200C66000800040258A5
:100C980052455100F5040020F4000020FEE7FEE76D
:100CA800FEE7FEE7FEE770477047704708B503F0B8
:100CB8004DF808BD08B5024803F04EFB08BD00BF5B
:100CC800C80A002008B5024803F0DCFE08BD00BFD2
:100CD8009C0B002008B5024803F0D4FE08BD00BFF5
:100CE800300C002082B0074BD3F8F42042F0020207
:100CF800C3F8F420D3F8F43003F002030193019B06
:100D080002B070470044025870B58CB000230793B6
:100D1800089309930A930B930268434B9A4201D0B4
:100D28000CB070BD414BD3F8D82042F40042C3F850
:100D3800D820D3F8D82002F400420092009AD3F8C1
:100D4800D82042F48032C3F8D820D3F8D82002F44F
:100D580080320192019AD3F8D82042F40032C3F8C5
:100D6800D820D3F8D82002F400320292029AD3F89D
:100D7800E02042F00402C3F8E020D3F8E02002F0BB
:100D880004020392039AD3F8E02042F00102C3F868
:100D9800E020D3F8E02002F001020492049AD3F88C
:100DA800E02042F00202C3F8E020D3F8E02002F08D
:100DB80002020592059AD3F8E02042F04002C3F8F7
:100DC800E020D3F8E03003F040030693069B32237B
:100DD8000793022608960B250B9507A9144802F0DD
:100DE8003FFB862307930896002409940A940B95E1
:100DF80007A9104802F034FB4FF4005307930896F4
:100E080009940A940B9507A90B4802F029FB4FF4A3
:100E180020530793089609940A940B9507A9074845
:100E280002F01EFB7CE700BF00800240004402582D
:100E3800000802580000025800040258001802581E
:100E480010B5B8B0044600213391349135913691EC
:100E58003791C02202A805F0C1FB22681F4B9A42B5
:100E680001D038B010BD4FF480520023CDE90223E1
:100E780002A801F0A5FB70BB194BD3F8F02042F48F
:100E88008052C3F8F020D3F8F02002F48052009288
:100E9800009AD3F8E02042F00202C3F8E020D3F829
:100EA800E03003F002030193019B282333930223CC
:100EB80034930024359436940523379333A909488D
:100EC80002F0CEFA22460E21232000F043F9232017
:100ED80000F076F9C5E7FFF7EBFCCDE700300140FD
:100EE800004402580004025802680A4B9A4200D093
:100EF800704782B0084BD3F8F02042F00102C3F8E3
:100F0800F020D3F8F03003F001030193019B02B005
:100F1800704700BF000001400044025870B5BCB0E3
:100F2800044600213791389139913A913B91C0227A
:100F380006A805F053FB2368494A934204D0494A5E
:100F4800934252D03CB070BD02220023CDE9062363
:100F580006A801F035FB002844D1434BD3F8E8201C
:100F680042F40032C3F8E820D3F8E82002F4003253
:100F78000192019AD3F8E02042F00102C3F8E02080
:100F8800D3F8E02002F001020292029AD3F8E0209E
:100F980042F00802C3F8E020D3F8E03003F0080379
:100FA8000393039B08233793022638960024399429
:100FB8003A9407253B9537A92C4802F051FA20238B
:100FC8003793389639943A943B9537A9284802F0D4
:100FD80047FA22462146262000F0BCF8262000F0D9
:100FE800EFF8AFE7FFF764FCB7E702220023CDE98B
:100FF800062306A801F0E4FA78BB1B4BD3F8E820D7
:1010080042F48022C3F8E820D3F8E82002F48022D2
:101018000492049AD3F8E02042F00802C3F8E020D2
:10102800D3F8E03003F008030593059B4FF44073B1
:10103800379302233893002439943A9407233B9337
:1010480037A90B4802F00CFA22462146272000F067
:1010580081F8272000F0B4F874E7FFF729FCCCE703
:101068000044004000480040004402580000025874
:10107800000C025870B5B8B0044600213391349181
:10108800359136913791C02202A805F0A7FA226857
:10109800244B9A4201D038B070BD4FF4802200230F
:1010A800CDE902234FF48013249302A801F088FAB3
:1010B800002833D102F0ECFD1B4CD4F8E03043F0AB
:1010C8000103C4F8E030D4F8E03003F001030093E2
:1010D800009B4FF4C853339302233493002535956E
:1010E80036950A233793114E33A9304602F0B8F9E2
:1010F8004FF4007333933495359533A9304602F095
:10110800AFF9D4F8D83043F00063C4F8D830D4F835
:10111800D83003F000630193019BBCE7FFF7C8FBDD
:10112800C8E700BF00000840004402580000025809
:101138000649CB6823F4E0631B041B0C000200F48F
:10114800E0600343024A1A43CA60704700ED00E0BA
:101158000000FA0500B5174BDB68C3F30223C3F19F
:10116800070CBCF1040F28BF4FF0040C03F1040E68
:10117800BEF1060F14D9033B4FF0FF3E0EFA0CFCEC
:1011880021EA0C0199400EFA03F322EA03031943FA
:10119800002807DB0901C9B2074B19545DF804FBA5
:1011A8000023E9E700F00F000901C9B2034B195405
:1011B800F4E700BF00ED00E000E400E014ED00E01B
:1011C800002807DB00F01F02400901239340024A70
:1011D80042F82030704700BF00E100E00138B0F16C
:1011E800807F0BD24FF0E0235861054AF02182F846
:1011F80023100020986107221A6170470120704768
:1012080000ED00E030B48B680A6813430A7943EABA
:10121800C2630A7B43EAC2534A7B43EA82538A7B0E
:1012280043EA4253CA7B43EA02530A7C002A40F04D
:10123800B0804FF4002213434A7C002A40F0AB8070
:101248004FF4003213438A7C43EA02434A6913434A
:101258008A6913430A7F43EA02334A7F43EAC22377
:101268008A7F002A40F099804FF480621343CA7F36
:1012780043EA422391F82020002A40F090804FF45E
:10128800807213434A6A134391F8282043EA0213F1
:10129800CA6A13430468226822F07F4222F47B0260
:1012A80022F4FE4222F07C0213432360CA6B91F8B9
:1012B80038301B0643EA426391F8302043EA824300
:1012C80091F8312043EA424391F83220002A68D14C
:1012D8004FF4803213434A6B13430468626822F068
:1012E8007C5222F4EF2222F4FF6222F00702134319
:1012F800636091F840204B6C43EA02220468E56879
:101308002B4B2B401343E36091F854200B6D43EAB9
:10131800420391F84C20002A45D1802213438A6C5D
:1013280043EA02430468226F22F0F2021204120C0C
:101338001343236791F8563091F8552043EA420247
:101348000468D4F8903023F003031343C4F89030B2
:101358000268D2F8003D23F072038C6D2343C2F873
:10136800003DCB6D91F86020FAB94022134391F803
:10137800612043EA021391F8622043EAC20301683C
:10138800D1F8302D22F07B021343C1F8303D30BC38
:10139800704700224FE7002254E7002266E7002248
:1013A8006FE7002296E70022B8E70022DEE700BFD9
:1013B800F0FEFFFF10B4026802F580521468244B57
:1013C80023400C68234313600A798B6843EA02338D
:1013D8000A7B43EAC232036803F5805CDCF8044008
:1013E8001C4B23401343CCF8043091F80DC00B6A12
:1013F80043EA0C4C026802F58052D2F80041164BC1
:10140800234043EA0C03C2F800310B690A7D43EA22
:1014180002134A7F43EA0232036803F5805CDCF872
:1014280004410E4B23401343CCF804310A7F8969E9
:1014380041EAC271026802F58052D2F80801084BED
:1014480003400B43C2F808315DF8044B704700BFF6
:10145800FD87FFFFFE2FFFFF00C0FEFFEFEFC0FF7D
:10146800FFFFC07F70B5A2B0064601258DF8335046
:10147800002412948DF841408DF843408DF828508F
:101488008DF856508DF832508DF84C408DF88450B8
:101498004FF400530F938DF85C4018948DF88540F5
:1014A8008DF886404FF4C36316938DF830400B9443
:1014B8008DF835508DF836408DF840401D941B94BA
:1014C80014948DF864408DF87A408DF842502023AA
:1014D80020938DF844508DF855404FF040530993B0
:1014E8004FF480430E938DF8314002231F938DF8FB
:1014F80078408DF879408DF854408DF834501A941E
:101508008DF8705009A9FFF77DFE8DF804500295FB
:1015180000948DF81C408DF80D408DF80C404FF468
:10152800001306938DF8144004938DF81D404FF472
:101538000673089369463046FFF73CFF22B070BD3A
:1015480010B4002210E0C46802EB42034FEAC30C57
:1015580004EBC303002144F80C1059609960D9606A
:10156800911D40F821300132032AECD9002383620F
:10157800036803F580530322C3F82C21C26803686B
:1015880003F58053C3F81421C268036803F5805338
:10159800C3F820215DF8044B704710B4002113E014
:1015A800046901EB41034FEAC30C04EBC3030022B7
:1015B80044F80C205A609A60DA601A615A6101F1A5
:1015C800120240F8223001310329E9D90023C3650A
:1015D80003668366C3668365036803F58053032245
:1015E800C3F830210269036803F58053C3F81C214E
:1015F800036903F14802036803F58053C3F82821FF
:101608005DF8044B7047000038B505460368D3F809
:10161800004224F4706400F081FE104B984205D813
:1016280044F400742B68C3F8004238BD0C4B984250
:1016380002D244F44074F5E70A4B9842F2D90A4BB7
:10164800984202D844F48074ECE7084B984202D8D8
:1016580044F48064E6E744F4A064E3E7BF0E1602AE
:1016680000879303FFE0F5057FD1F0087FB2E60E0F
:10167800002800F0A78030B583B00446D0F8843045
:101688009BB3514BD3F8F42042F00202C3F8F42084
:10169800D3F8F43003F002030193019B237A53BB80
:1016A800002002F07FFB494B5B68236803F58053F9
:1016B8001A6842F001021A6002F054FB05462368DA
:1016C80003F580531B6813F0010F19D002F04AFB91
:1016D800401BB0F5FA7FF2D90423C4F88830E02320
:1016E800C4F88430012003B030BD2323C0F884300F
:1016F800FFF70AFBC5E74FF4000002F053FBD2E7FF
:101708002046FFF781FF00F009FE314BA3FB0023C1
:101718009B0C2268013BC2F8DC302046FFF7A2FE92
:10172800226802F58052D2F8003123F4E01343F422
:101738000023C2F80031626912F0030F06D00120BD
:10174800C4F88800E023C4F88430CCE7216801F5A8
:101758008051D1F808011F4B034043EA4203C1F806
:1017680008312046FFF7ECFE2046FFF716FF6268B7
:1017780051791379226843EA0123C2F80033626879
:10178800D17893781B0443EA0163517843EA012333
:10179800117822680B43C2F804332268D2F80C1778
:1017A8000D4B0B43C2F80C372268D2F810170B4BBD
:1017B8000B43C2F810370020C4F888001023C4F87F
:1017C800843090E701207047004402580004005814
:1017D80083DE1B430180FFFF6000020C00C0200C69
:1017E800002800F0398338B50446036813F0010F68
:1017F80025D0944A136903F03803926A102B15D048
:10180800182B0FD06368B3F5803F3FD0002B53D11E
:101818008C4B1A6822F480321A601A6822F48022EB
:101828001A6038E002F00302022AEBD1854B1B68EC
:1018380013F4003F03D06368002B00F00F83236884
:1018480013F0020F00F0A1807E4A1369926A13F028
:1018580038035AD0182B55D0E368002B00F0DE80EF
:1018680078490A6822F0190213430B6002F07AFAE9
:101878000546744B1B6813F0040F40F0AD8002F06E
:1018880071FA401B0228F4D90320EEE26D4A13686E
:1018980043F48033136063682BB302F063FA0546A0
:1018A800684B1B6813F4003FC9D102F05BFA401B78
:1018B8006428F5D90320D8E2B3F5A02F09D0614BED
:1018C8001A6822F480321A601A6822F480221A6098
:1018D800E1E75C4B1A6842F480221A601A6842F405
:1018E80080321A60D7E702F03DFA0546554B1B686F
:1018F80013F4003FA3D002F035FA401B6428F5D951
:101908000320B2E212F0030FA6D14E4B1B6813F06E
:10191800040F03D0E368002B00F0A282494A136841
:1019280023F01903E1680B43136002F01BFA054624
:10193800444B1B6813F0040F06D102F013FA401B46
:101948000228F5D9032090E202F026FA41F20303B7
:10195800984212D82269402A07D03A494B6823F4A2
:101968007C3343EA02334B600FE0364A536823F472
:101978007C3343F40033536007E0324A536823F062
:10198800FE43216943EA01635360236813F0100F93
:1019980000F088802B4A136903F03803926A082BF9
:1019A80056D0182B50D0E369002B00F0B880254A98
:1019B800136843F08003136002F0D4F90546214B05
:1019C8001B6813F4807F40F0888002F0CBF9401B3D
:1019D8000228F4D9032048E202F0DEF941F20303B9
:1019E800984212D82269402A07D016494B6823F436
:1019F8007C3343EA02334B60C7E7124A536823F447
:101A08007C3343F400335360BFE70E4A536823F036
:101A1800FE43216943EA01635360B6E7094A136844
:101A280023F00103136002F09DF90546054B1B687E
:101A380013F0040FA9D002F095F9401B0228F5D93C
:101A4800032012E20044025802F00302012AAAD13C
:101A5800A14B1B6813F4807F03D0E369802B40F00F
:101A6800018202F099F941F20303984212D8226ADE
:101A7800202A07D098494B6823F0F84343EA826349
:101A88004B600FE0944A536823F0F84343F08043D7
:101A9800536007E0904AD36823F07C53216A43EAF5
:101AA8000163D360236813F0080F60D06369002BCB
:101AB80049D0894A536F43F00103536702F052F942
:101AC8000546854B5B6F13F0020F50D102F04AF9BF
:101AD800401B0228F5D90320C7E102F05DF941F265
:101AE8000303984212D8226A202A07D07A494B6801
:101AF80023F0F84343EA82634B60D3E7764A53689E
:101B080023F0F84343F080435360CBE7724AD3682D
:101B180023F07C53216A43EA0163D360C2E76E4A2B
:101B2800136823F08003136002F01CF905466A4B22
:101B38001B6813F4807FB5D002F014F9401B02280B
:101B4800F5D9032091E1644A536F23F001035367E9
:101B580002F008F90546604B5B6F13F0020F06D0E0
:101B680002F000F9401B0228F5D903207DE1236823
:101B780013F0200F29D0A3699BB1574A136843F487
:101B88008053136002F0EEF80546534B1B6813F4BC
:101B9800005F1AD102F0E6F8401B0228F5D90320AD
:101BA80063E14D4A136823F48053136002F0DAF8B6
:101BB8000546494B1B6813F4005F06D002F0D2F8C3
:101BC800401B0228F5D903204FE1236813F0040FC6
:101BD80021D1636A002B00F047813F4A126902F065
:101BE8003802182A00F0EE80022B79D03A4A13689E
:101BF80023F08073136002F0B5F80446364B1B6877
:101C080013F0007F00F0DC8002F0ACF8001B022823
:101C1800F4D9032029E1314A136843F4807313602F
:101C280002F0A0F805462D4B1B6813F4807F06D1FF
:101C380002F098F8401B6428F5D9032015E1A36841
:101C4800012B0AD00BBB244B1A6F22F001021A6732
:101C58001A6F22F004021A6704E01F4A136F43F058
:101C680001031367A36833B302F07CF805461A4BE7
:101C78001B6F13F0020FACD102F074F8401B41F255
:101C880088339842F3D90320EFE0052B09D0124B93
:101C98001A6F22F001021A671A6F22F004021A67FB
:101CA800E0E70D4B1A6F42F004021A671A6F42F010
:101CB80001021A67D6E702F055F80546064B1B6F76
:101CC80013F0020F85D002F04DF8401B41F2883323
:101CD8009842F3D90320C8E000440258004802584B
:101CE800694A136823F08073136002F03BF80546D5
:101CF800654B1B6813F0007F06D002F033F8401BD9
:101D08000228F5D90320B0E05F4B996A5F4A0A4080
:101D1800A16AE06A41EA00110A439A62226B013A19
:101D2800C2F30802616B0139490289B20A43A16B07
:101D38000139090401F4FE010A43E16B013909067E
:101D480001F0FE410A431A63DA6A22F00102DA62FC
:101D5800596B4F4A0A40A16C42EAC1025A63DA6AD7
:101D680022F00C02216C0A43DA62DA6A22F00202DB
:101D7800616C0A43DA62DA6A42F48032DA62DA6A59
:101D880042F40032DA62DA6A42F48022DA62DA6A0B
:101D980042F00102DA621A6842F080721A6001F0B9
:101DA800E1FF0446384B1B6813F0007F06D101F0B1
:101DB800D9FF001B0228F5D9032056E0002054E083
:101DC800002052E0304A916A106B012B4ED001F08E
:101DD8000303A26A93424BD1C1F30511E36A994206
:101DE80048D1C0F30802236B013B9A4244D1C0F3A7
:101DF8004622636B013B9A4240D1C0F30642A36B73
:101E0800013B9A423CD1C0F30660E36B013B984228
:101E180038D11D4B5B6BC3F3CC03A26C9A4201D142
:101E2800002022E0184AD36A23F00103D36201F0AC
:101E380099FF054601F096FFA842FBD0124A516B64
:101E4800134B0B40A16C43EAC1035363D36A43F0BD
:101E58000103D362002008E001207047012004E05C
:101E6800012002E0012000E0002038BD0120FCE74D
:101E78000120FAE70120F8E70120F6E70120F4E75E
:101E88000120F2E70120F0E7004402580CFCFFFFB4
:101E98000700FFFF744B1B6903F03803102B00F099
:101EA800DE80182B10D00BB1704870476E4B1B6842
:101EB80013F0200F00F0D5806B4B1868C0F3C100F9
:101EC8006B4B23FA00F0704710B4674A916A01F02F
:101ED8000301946AC4F30510D36A03F0010C536B31
:101EE800C3F3CC030CFB03F307EE903AF8EE677AE2
:101EF80014F47C7F00F09380012965D0022900F05A
:101F08009180E1B107EE100AF8EE476A9FED596A31
:101F180086EE267A544B1B6BC3F3080306EE903A01
:101F2800F8EE666A9FED546A67EE867A76EEA77ACF
:101F3800F7EE006A77EEA67A27EE277A60E0136854
:101F480013F0200F23D011461268C2F3C102484B88
:101F5800D34007EE103AF8EE476A07EE100AB8EEDB
:101F6800476A86EE867A0B6BC3F3080306EE903A4F
:101F7800F8EE666A9FED406A67EE867A76EEA77A93
:101F8800F7EE006A77EEA67A27EE277A38E007EEB2
:101F9800100AF8EE476A9FED396A86EE267A324BC8
:101FA8001B6BC3F3080306EE903AF8EE666A9FEDE2
:101FB800326A67EE867A76EEA77AF7EE006A77EEEF
:101FC800A67A27EE277A1BE007EE100AF8EE476A92
:101FD8009FED286A86EE267A234B1B6BC3F3080312
:101FE80006EE903AF8EE666A9FED236A67EE867A07
:101FF80076EEA77AF7EE006A77EEA67A27EE277ACA
:10200800194B1B6BC3F34623013307EE903AF8EEE6
:10201800677AC7EE276AFCEEE67A17EE900A5DF853
:10202800044B704707EE100AF8EE476A9FED146AF2
:1020380086EE267A0C4B1B6BC3F3080306EE903A28
:10204800F8EE666A9FED0C6A67EE867A76EEA77AF6
:10205800F7EE006A77EEA67A27EE277AD0E70948E6
:1020680070470348704700BF0044025800093D000C
:102078000090D0030024744A000000390024744CF6
:102088000024F44A00127A00002800F0328170B56A
:102098000D4604469B4B1B6803F00F038B420BD283
:1020A800984A136823F00F030B431360136803F077
:1020B8000F038B4240F01F81236813F0040F0CD0EC
:1020C8002269914B9B6903F070039A4205D98E49A6
:1020D8008B6923F070031A438A61236813F0080F91
:1020E8000CD06269884BDB6903F070039A4205D90A
:1020F8008549CB6923F070031A43CA61236813F03A
:10210800100F0CD0A269804BDB6903F4E0639A429C
:1021180005D97D49CB6923F4E0631A43CA61236872
:1021280013F0200F0CD0E269774B1B6A03F07003A1
:102138009A4205D974490B6A23F070031A430A625C
:10214800236813F0020F0CD0E2686F4B9B6903F011
:102158000F039A4205D96C498B6923F00F031A4380
:102168008A61236813F0010F41D0674A936923F409
:102178007063A1680B4393616368022B0AD0032B39
:1021880027D0012B2CD0604A126812F0040F06D118
:102198000120ADE0126812F4003F00F0AE805A4909
:1021A8000A6922F0070213430B6101F0DBFD0646C2
:1021B800554B1B6903F038036268B3EBC20F16D0A6
:1021C80001F0D0FD801B41F288339842F0D90320FA
:1021D8008EE04D4A126812F0007FE0D1012087E0BE
:1021E800494A126812F4807FD9D1012080E023681F
:1021F80013F0020F0CD0E268434B9B6903F00F0306
:102208009A4205D240498B6923F00F031A438A6129
:102218003C4B1B6803F00F03AB420AD9394A1368D9
:1022280023F00F032B431360136803F00F03AB4233
:1022380065D1236813F0040F0CD02269324B9B69D7
:1022480003F070039A4205D22F498B6923F070037B
:102258001A438A61236813F0080F0CD062692A4B6D
:10226800DB6903F070039A4205D22749CB6923F052
:1022780070031A43CA61236813F0100F0CD0A269C7
:10228800214BDB6903F4E0639A4205D21E49CB690E
:1022980023F4E0631A43CA61236813F0200F0CD0BB
:1022A800E269194B1B6A03F070039A4205D216497A
:1022B8000B6A23F070031A430A62FFF7EBFD124919
:1022C8008B69C3F30323114AD35C03F01F03D8407F
:1022D8008B6903F00F03D35C03F01F0320FA03F3A9
:1022E8000B4A13600B4B18600B4B186801F0D8FCB5
:1022F80070BD012070470120FAE70120F8E70120AE
:10230800F6E700BF00200052004402584866000863
:102318000C000020080000200400002008B5FFF78A
:10232800B9FD0B4A9369C3F303230A49CB5C03F055
:102338001F0320FA03F3926902F00F02885C00F091
:102348001F0023FA00F0044A1060044A136008BD15
:1023580000440258486600080C00002008000020CD
:1023680008B5FFF7DBFF054BDB69C3F30213044A2B
:10237800D35C03F01F03D84008BD00BF00440258D7
:102388004866000808B5FFF7C9FF054BDB69C3F3CA
:102398000223044AD35C03F01F03D84008BD00BFE2
:1023A8000044025848660008404B9B6A03F0030348
:1023B800032B79D070B505460E463C4A136823F0C6
:1023C8008063136001F0CEFC0446384B1B6813F0A1
:1023D800006F06D001F0C6FC031B022BF5D90320C1
:1023E80070BD324B9A6A22F47C32296842EA013283
:1023F8009A626A68013AC2F30802A9680139490277
:1024080089B20A43E9680139090401F4FE010A4363
:1024180029690139090601F0FE410A439A63DA6A1B
:1024280022F0C00269690A43DA62DA6A22F02002FD
:10243800A9690A43DA62DA6A22F01002DA62D96B11
:102448001B4A0A40E96942EAC102DA63DA6A42F0E1
:102458001002DA62C6B91A46DB6A43F40023D36273
:10246800124A136843F08063136001F07BFC044652
:102478000E4B1B6813F0006F14D101F073FC001BA6
:102488000228F5D90320ABE7012E05D0074AD36A05
:1024980043F40013D362E3E7044AD36A43F4801396
:1024A800D362DDE700209BE7012070470044025813
:1024B8000700FFFF404B9B6A03F00303032B79D00F
:1024C80070B505460E463C4A136823F080531360E6
:1024D80001F048FC0446384B1B6813F0005F06D037
:1024E80001F040FC031B022BF5D9032070BD324BD1
:1024F8009A6A22F07C72296842EA01529A626A68F2
:10250800013AC2F30802A9680139490289B20A43AB
:10251800E9680139090401F4FE010A43296901390E
:10252800090601F0FE410A431A64DA6A22F440629D
:1025380069690A43DA62DA6A22F40072A9690A430D
:10254800DA62DA6A22F48072DA62596C1B4A0A404B
:10255800E96942EAC1025A64DA6A42F48072DA62CC
:10256800C6B91A46DB6A43F48003D362124A136879
:1025780043F08053136001F0F5FB04460E4B1B68D3
:1025880013F0005F14D101F0EDFB001B0228F5D910
:102598000320ABE7012E05D0074AD36A43F08073C6
:1025A800D362E3E7044AD36A43F40003D362DDE766
:1025B80000209BE701207047004402580700FFFFF6
:1025C800F8B50446036813F0006F30D0836EB3F596
:1025D800001F26D00ED8EBB1B3F5801F07D102211A
:1025E8000830FFF7E1FE054645B12E4621E00126F9
:1025F80035461EE0B3F5401F09D10025984A136DF2
:1026080023F44013A16E0B431365002611E0012645
:1026180035460EE0924AD36A43F40033D36200256C
:10262800ECE702212830FFF745FF0546DCE70026E6
:102638003546236813F4807F14D0A36D042B32D859
:10264800DFE803F003232A080800854AD36A43F425
:102658000033D36255BB824A136D23F00703A16D83
:102668000B431365236813F4007F31D0E36D802B8F
:102678004CD020D8002B43D0402B19D1002104F195
:102688000800FFF791FE05461AE0002104F1080052
:10269800FFF78AFE0546DDE7002104F12800FFF771
:1026A80009FF0546D6E701263546DBE72E46D9E77A
:1026B800012635460CE0C02B02D0B3F5807F1CD133
:1026C8005DBB674A136D23F4E073E16D0B4313653B
:1026D800236813F4806F46D0D4F8A830B3F5800F80
:1026E80039D01FD88BB3B3F5001F18D1002104F1DE
:1026F8000800FFF759FE05461AE001263546E7E7C8
:10270800574AD36A43F40033D362D9E7002104F16E
:102718002800FFF7CFFE0546D2E72E46D8E7012668
:10272800354620E0B3F5C00F02D0B3F5000F09D14C
:10273800C5B94B4A936D23F46003D4F8A8100B4332
:10274800936510E0012635460DE0454AD36A43F407
:102758000033D362ECE7002104F12800FFF7AAFE5A
:102768000546E5E72E46236813F4006F24D0D4F815
:10277800AC30B3F1007F42D00ED8002B39D0B3F182
:10278800807F06D1002104F10800FFF70DFE054601
:1027980008E0012635460FE0B3F1407F02D0B3F1DF
:1027A800806F23D1002D31D12D4A936D23F0E06342
:1027B800D4F8AC100B439365236813F0007F2ED038
:1027C800E36C202B40D026D833B1102B20D1244ADB
:1027D800D36A43F40033D362002D3CD1204AD36C32
:1027E80023F03003E16C0B43D36418E0012635462F
:1027F800E2E71B4AD36A43F40033D362D2E70021ED
:1028080004F12800FFF756FE0546CBE72E46D3E72E
:102818000126354603E0302BDED0012635462368F5
:1028280013F4805F2DD0236EB3F5005F4FD019D815
:10283800002B46D0B3F5805F0FD1002104F10800CA
:10284800FFF7B2FD054613E0022104F10800FFF787
:10285800ABFD0546C0E72E46E1E70126354610E008
:1028680000440258B3F5405F02D0B3F5804F25D13C
:10287800002D33D1774A136D23F4E043216E0B43C7
:102888001365236813F4005F38D0636EB3F5003F17
:1028980053D028D843B1B3F5803F21D1012104F1A9
:1028A8000800FFF781FD0546002D4DD1694A136DDB
:1028B80023F4E023616E0B4313651FE001263546C0
:1028C800DFE7644AD36A43F40033D362D0E70021D8
:1028D80004F12800FFF7EEFD0546C9E72E46D0E7CC
:1028E800012635460AE0B3F5802FDDD0B3F5A02FD9
:1028F800DAD0B3F5403FD7D001263546236813F424
:10290800804F31D0D4F8B030B3F1005F45D020D833
:1029180043B1B3F1805F19D1012104F10800FFF739
:1029280043FD0546002D3FD14A4A936D23F0E0430D
:10293800D4F8B0100B43936516E0012104F1280088
:10294800FFF7B8FD0546AFE72E46D7E7012635461F
:102958000AE0B3F1804FE5D0B3F1A04FE2D0B3F174
:10296800405FDFD001263546236813F4004F09D0B5
:10297800236FB3F1805F19D0B3F1005F24D0D3B1D6
:1029880001263546236813F0807F33D0A36C032BD0
:102998005BD8DFE803F027225327012104F1280040
:1029A800FFF788FD0546BDE72E46DDE7294AD36ACD
:1029B80043F40033D36275B9264A136D23F04053AC
:1029C800216F0B431365DDE7012104F10800FFF7D0
:1029D800EBFC0546EFE72E46D4E71E4AD36A43F4DC
:1029E8000033D362A5BB1B4AD36C23F00303A16C4D
:1029F8000B43D364236813F4800F2DD1236813F09D
:102A0800010F00F0A580E36F282B00F29F80DFE81C
:102A180003F08D9D9D9D9D9D9D9D879D9D9D9D9D4B
:102A28009D9D969D9D9D9D9D9D9D8D9D9D9D9D9DE5
:102A38009D9D8D9D9D9D9D9D9D9D8D00022104F1D7
:102A48000800FFF7B1FC0546CCE701263546D1E77B
:102A58002E46CFE700440258914A136843F4807326
:102A6800136001F07FF907468D4B1B6813F4807FD4
:102A780005D101F077F9C01B6428F5D90325002D8D
:102A88004AD1884B1B6FD4F8B420534013F4407FCD
:102A98000CD0844B1A6F22F44072196F41F48031C4
:102AA8001967196F21F4803119671A67D4F8B4309F
:102AB800B3F5807F15D08DBBD4F8B43003F44072E1
:102AC800B2F5407F1ED0774A136923F47C53136113
:102AD80074490B6FD4F8B420C2F30B0213430B678D
:102AE8008CE701F03FF907466E4B1B6F13F0020F9E
:102AF800E1D101F037F9C01B41F288339842F3D98C
:102B08000325D8E76748026922F47C52664901EA3E
:102B1800131313430361DBE72E466FE72E466DE779
:102B2800012104F10800FFF73FFC0546E5B95D4ABD
:102B3800536D23F03803E16F0B43536508E001211F
:102B480004F12800FFF7B6FC0546EFE701263546F5
:102B5800236813F0020F17D0A36F052B28D8DFE8DE
:102B680003F00B05200B0B0B2E46F1E7012104F1B6
:102B78000800FFF719FC0546EDB94A4A536D23F0E2
:102B88000703A16F0B435365236813F0040F23D089
:102B9800D4F89430052B45D8DFE803F0150F3D1520
:102BA8001515012104F12800FFF784FC0546E3E729
:102BB80001263546E8E72E46E6E7012104F108003C
:102BC800FFF7F2FB054685BB364A936D23F00703F2
:102BD800D4F894100B439365236813F0200F34D076
:102BE800D4F89030B3F1005F4ED023D843B1B3F19D
:102BF800805F1CD1002104F10800FFF7D5FB0546D2
:102C0800002D48D1274A536D23F0E043D4F89010A3
:102C18000B43536519E0012104F12800FFF74AFC32
:102C28000546D0E701263546D6E72E46D4E70126E5
:102C380035460AE0B3F1804FE2D0B3F1A04FDFD0C0
:102C4800B3F1405FDCD001263546236813F0400F0E
:102C580037D0D4F89C30B3F5006F53D026D843B1A1
:102C6800B3F5806F19D1002104F10800FFF79CFB30
:102C78000546002D4DD10B4A936D23F4E053D4F84B
:102C88009C100B4393651CE0022104F12800FFF718
:102C980011FC0546B4E72E46D7E70126354610E075
:102CA8000048025800440258CFFFFF00B3F5805F88
:102CB800DFD0B3F5A05FDCD0B3F5406FD9D00126E3
:102CC8003546236813F0800F33D0D4F8A030B3F51D
:102CD800804F00F0A38021D843B1B3F5005F1AD12B
:102CE800002104F10800FFF75FFB0546002D40F0C6
:102CF8009C80814A936D23F46043D4F8A0100B4361
:102D0800936516E0022104F12800FFF7D3FB05467E
:102D1800AFE72E46D5E7012635460AE0B3F5004F62
:102D2800E4D0B3F5204FE1D0B3F5C04FDED0012693
:102D38003546236813F0080F0CD0D4F88430B3F567
:102D4800805F74D06C4A536D23F44053D4F88410D8
:102D58000B435365236813F0100F0CD0D4F8983048
:102D6800B3F5807F6CD0644A936D23F44073D4F834
:102D780098100B439365236813F4002F0BD0D4F8F5
:102D8800A430B3F5803F74D0B3F5003F67D0002B73
:102D98005FD001263546236813F4802F0CD0D4F871
:102DA8008830B3F5001F7CD0B3F5401F6FD0B3F562
:102DB800801F67D001263546236813F4803F08D06A
:102DC800236D002B76D0B3F5803F00F0818001267B
:102DD8003546236813F0005F40F08380236813F4BE
:102DE800003F00F08E80D4F88030B3F5807F00F08B
:102DF800EC8040F28380B3F5007F03D0B3F5407FC9
:102E080040F0E180002D40F0E6803B4A536D23F40A
:102E18004073D4F880100B43536572E0022104F12B
:102E28002800FFF747FB054660E72E4681E70221A9
:102E380004F12800FFF73EFB002883D0012681E734
:102E4800022104F12800FFF735FB00288BD001266A
:102E580089E7002104F10800FFF7A6FA05467DB9C5
:102E6800254A936D23F44033D4F8A4100B4393659B
:102E780091E7022104F12800FFF71CFB0546EEE765
:102E88002E4688E71C4AD36A43F40033D3627DB9DF
:102E9800194A536D23F44013D4F888100B43536533
:102EA8008AE7012104F12800FFF704FB0546EEE755
:102EB8002E4681E7104AD36A43F40033D36275B9CA
:102EC8000D4AD36C23F48033216D0B43D36480E720
:102ED800022104F10800FFF767FA0546EFE72E46DE
:102EE80077E7022104F12800FFF7E4FA00283FF40D
:102EF80075AF012672E700BF00440258002B81D04D
:102F08000126236813F4801F06D04F4A136D23F05F
:102F18000043616F0B431365236813F0805F07D08C
:102F2800494A136923F48043D4F8B8100B4313615A
:102F3800236813F4001F06D0434A136D23F08073EF
:102F4800E16E0B431365236813F0804F09D03E4BA5
:102F58001A6922F400421A611A69D4F8BC100A43AB
:102F68001A612368002B06DA374AD36C23F04053E2
:102F7800616D0B43D364236813F4000F07D0324A02
:102F8800536D23F44003D4F88C100B4353656368E6
:102F980013F0010F21D1636813F0020F26D1636883
:102FA80013F0040F2BD1636813F0080F30D1636856
:102FB80013F0100F35D1636813F0200F3AD106B122
:102FC80001263046F8BD01269BE71F4AD36A43F421
:102FD8000033D36216E72E4693E7002104F1080078
:102FE800FFF7E2F90028D6D00646D4E7012104F11C
:102FF8000800FFF7D9F90028D1D00646CFE702210B
:1030080004F10800FFF7D0F90028CCD00646CAE73B
:10301800002104F12800FFF74DFA0028C7D0064622
:10302800C5E7012104F12800FFF744FA0028C2D0BF
:103038000646C0E7022104F12800FFF73BFA002802
:10304800BDD00646BBE700BF0044025808B5FFF7ED
:1030580065F9054B1B6AC3F30213044AD35C03F0FA
:103068001F03D84008BD00BF004402584866000846
:1030780010B5774A916A946AC4F3053ED36AC3F3DC
:10308800001CD36BC3F3CC030CFB03F314F47C3F99
:1030980000F0D88001F0030107EE903AF8EE677A65
:1030A800012965D0022900F0B080E1B107EE10EAED
:1030B800B8EE477A9FED676AC6EE076A644B9B6B6A
:1030C800C3F3080307EE103AB8EE477A9FED626A39
:1030D80067EE867A77EE277AB7EE007A77EE877A08
:1030E80066EEA76A60E0136813F0200F23D011463C
:1030F8001268C2F3C102594BD34007EE103AB8EE3A
:10310800477A06EE90EAB8EE666AC7EE066A8B6BF7
:10311800C3F3080307EE103AB8EE477A9FED4E6AFC
:1031280067EE867A77EE277AB7EE007A77EE877AB7
:1031380066EEA76A38E007EE10EAB8EE477A9FED28
:10314800486AC6EE076A424B9B6BC3F3080307EE57
:10315800103AB8EE477A9FED406A67EE867A77EEC6
:10316800277AB7EE007A77EE877A66EEA76A1BE0D1
:1031780007EE10EAB8EE477A9FED366AC6EE076AA0
:10318800334B9B6BC3F3080307EE103AB8EE477A4C
:103198009FED316A67EE867A77EE277AB7EE007A86
:1031A80077EE877A66EEA76A294A936BC3F34623BC
:1031B80007EE103AB8EE477AB7EE006A37EE067AAD
:1031C800C6EE877AFCEEE77AC0ED007A936BC3F31C
:1031D800064307EE103AB8EE477A37EE067AC6EE9F
:1031E800877AFCEEE77AC0ED017A936BC3F3066346
:1031F80007EE903AF8EE677A77EE867A86EEA77A47
:10320800BCEEC77A80ED027A10BD07EE10EAB8EE80
:10321800477A9FED146AC6EE076A0D4B9B6BC3F3A2
:10322800080307EE103AB8EE477A9FED0B6A67EE8F
:10323800867A77EE277AB7EE007A77EE877A66EEA7
:10324800A76AB1E70023036043608360DCE700BF3F
:10325800004402580024744A000000390090D0034A
:103268000024744C0024F44A10B5774A916A946A91
:10327800C4F3055ED36AC3F3002C536CC3F3CC03C9
:103288000CFB03F314F07C7F00F0D88001F00301FD
:1032980007EE903AF8EE677A012965D0022900F026
:1032A800B080E1B107EE10EAB8EE477A9FED676AA1
:1032B800C6EE076A644B1B6CC3F3080307EE103AAB
:1032C800B8EE477A9FED626A67EE867A77EE277ADC
:1032D800B7EE007A77EE877A66EEA76A60E0136841
:1032E80013F0200F23D011461268C2F3C102594BC4
:1032F800D34007EE103AB8EE477A06EE90EAB8EEF9
:10330800666AC7EE066A0B6CC3F3080307EE103A49
:10331800B8EE477A9FED4E6A67EE867A77EE277A9F
:10332800B7EE007A77EE877A66EEA76A38E007EE9E
:1033380010EAB8EE477A9FED486AC6EE076A424B34
:103348001B6CC3F3080307EE103AB8EE477A9FEDFB
:10335800406A67EE867A77EE277AB7EE007A77EEDC
:10336800877A66EEA76A1BE007EE10EAB8EE477A9E
:103378009FED366AC6EE076A334B1B6CC3F308032E
:1033880007EE103AB8EE477A9FED316A67EE867A13
:1033980077EE277AB7EE007A77EE877A66EEA76A35
:1033A800294A136CC3F3462307EE103AB8EE477A5E
:1033B800B7EE006A37EE067AC6EE877AFCEEE77A51
:1033C800C0ED007A136CC3F3064307EE103AB8EE6B
:1033D800477A37EE067AC6EE877AFCEEE77AC0EDD2
:1033E800017A136CC3F3066307EE903AF8EE677A36
:1033F80077EE867A86EEA77ABCEEC77A80ED027AF7
:1034080010BD07EE10EAB8EE477A9FED146AC6EED3
:10341800076A0D4B1B6CC3F3080307EE103AB8EEAE
:10342800477A9FED0B6A67EE867A77EE277AB7EED2
:10343800007A77EE877A66EEA76AB1E70023036021
:1034480043608360DCE700BF004402580024744AEC
:10345800000000390090D0030024744C0024F44A82
:10346800F0B583B000236BE085685E000324B440A8
:1034780025EA0405CC68B4402C438460446824EAF7
:103488000C0C4C68C4F300149C4044EA0C044460DF
:1034980068E0DD08083550F8256003F007044FEAB6
:1034A800840C0F2404FA0CF426EA040E0C6904FABE
:1034B8000CF444EA0E0440F825406BE0092400E0CF
:1034C800002404FA0EF42C430CF1020C694D45F863
:1034D8002C404FF0B0442568D44325EA02064F68D3
:1034E80017F4801F01D042EA05064FF0B0452E6060
:1034F8006D6804EA05064F6817F4001F01D042EA18
:1035080005064FF0B0456E60D5F8845004EA05060C
:103518004F6817F4003F01D042EA05064FF0B04566
:10352800C5F88460D5F880502C404E6816F4803F6A
:1035380001D042EA05044FF0B042C2F8804001339E
:103548000A6832FA03F400F092804FF0010C0CFA8A
:1035580003FC1CEA0202F2D04C6804F00304013CAC
:10356800012C81D94C6804F00304032C0CD0C468E6
:103578005D004FF0030C0CFA05FC24EA0C0C8C6877
:10358800AC4044EA0C04C4604C6804F00304022C08
:103598003FF47FAF04684FEA430E4FF0030C0CFA78
:1035A8000EFC24EA0C0C4C6804F0030404FA0EF434
:1035B80044EA0C0404604C6814F4403FBFD02E4C1D
:1035C800D4F8F45045F00205C4F8F450D4F8F440A7
:1035D80004F002040194019C4FEA930C0CF10205DB
:1035E800244C54F8255003F003044FEA840E0F24AA
:1035F80004FA0EF425EA0405204CA0423FF460AF1B
:1036080004F58064A04222D004F58064A04220D052
:1036180004F58064A0421ED004F58064A0421CD04A
:1036280004F58064A0421AD004F58064A04218D042
:1036380004F58064A04216D004F58064A04214D03A
:1036480004F58064A0423FF439AF0A2439E7012425
:1036580037E7022435E7032433E7042431E7052458
:103668002FE706242DE707242BE7082429E703B0D2
:10367800F0BD00BF00040058004402580000025882
:103688000AB18161704709048161704770B50446C9
:1036980000F068FB002C00F09181054694F8353065
:1036A800DBB2022B06D080236365002384F8343014
:1036B800012070BD23688C498C4A934218BF8B4205
:1036C80030D0183293422DD0183293422AD0183273
:1036D800934227D01832934224D01832934221D0F3
:1036E800183293421ED002F5567293421AD01832FD
:1036F800934217D01832934214D01832934211D003
:10370800183293420ED0183293420BD0183293429B
:1037180008D01832934205D01A6822F00E021A60B7
:10372800266809E01A6822F01E021A6022685369A6
:1037380023F080035361266823686B496B4A9342E0
:1037480018BF8B4242D0183293423FD0183293426E
:103758003CD01832934239D01832934236D01832BE
:10376800934233D01832934230D002F556729342C6
:103778002CD01832934229D01832934226D01832CE
:10378800934223D01832934220D0183293421DD04E
:10379800183293421AD01832934217D0544A93429F
:1037A80014D01432934211D0143293420ED01432F2
:1037B80093420BD01432934208D01432934205D06E
:1037C8001432934202D01432934204D1226E136809
:1037D80023F48073136023684349444A934218BF13
:1037E8008B422FD0183293422CD01832934229D0D2
:1037F8001832934226D01832934223D0183293427B
:1038080020D0183293421DD002F55672934219D037
:103818001832934216D01832934213D0183293427A
:1038280010D0183293420DD0183293420AD0183271
:10383800934207D01832934204D01A6822F001024A
:103848001A6003E01A6822F001021A60336813F064
:10385800010F0ED000F086FA431B052BF6D9202362
:103868006365032384F83530002384F8343001205D
:103878001FE723681C491D4A934218BF8B4239D061
:103888001832934236D01832934233D018329342CA
:1038980030D0183293422DD0183293422AD01832A1
:1038A800934227D002F55672934223D0183293429E
:1038B80020D0183293421DD0183293421AD01832B1
:1038C800934217D01832934214D01832934211D031
:1038D800183293420ED0A16DE36D03F01F0201234D
:1038E80093404B600DE000BF1000024028000240EA
:1038F80008540258A16DE36D03F01F023F23934063
:103908008B6023682E492F4A934218BF8B4242D0BE
:10391800183293423FD0183293423CD01832934227
:1039280039D01832934236D01832934233D01832F5
:10393800934230D002F5567293422CD018329342FB
:1039480029D01832934226D01832934223D0183205
:10395800934220D0183293421DD0183293421AD085
:103968001832934217D0184A934214D01432934213
:1039780011D0143293420ED0143293420BD0143229
:10398800934208D01432934205D01432934202D0A5
:10399800143293420BD1636EA26E5A60E36E33B158
:1039A8001A6822F480721A60236F626F5A600123CA
:1039B80084F83530002084F834007AE6012078E66F
:1039C800100002402800024008540258002800F065
:1039D800298108B5024690F83530DBB2022B03D0B6
:1039E80080234365012008BD0368904890498B42B5
:1039F80018BF83420CBF0121002166D030308342BA
:103A080063D01830834260D0183083425DD01830BC
:103A180083425AD01830834257D01830834254D04A
:103A280000F55670834250D0183083424DD018307C
:103A380083424AD01830834247D01830834244D05A
:103A48001830834241D0183083423ED01830834228
:103A58003BD0196821F00E0119601368A0F5956034
:103A680073498B4218BF83426AD072498B4267D030
:103A780018318B4264D018318B4261D018318B4297
:103A88005ED018318B425BD018318B4258D001F58B
:103A980056718B4254D018318B4251D018318B4219
:103AA8004ED018318B424BD018318B4248D0183148
:103AB8008B4245D018318B4242D018318B423FD0CF
:103AC800196821F0010119603EE0042082F83500F0
:103AD80081BB584A93422DD0183293422AD01832CB
:103AE800934227D01832934224D01832934221D0DF
:103AF800183293421ED002F5567293421AD01832E9
:103B0800934217D01832934214D01832934211D0EE
:103B1800183293420ED0183293420BD01832934287
:103B280008D01832934205D01A6822F001021A60B0
:103B3800002058E71A6822F001021A60002052E7B4
:103B4800196821F0010119601368384838498B4217
:103B580018BF834242D018318B423FD018318B4274
:103B68003CD018318B4239D018318B4236D01831BD
:103B78008B4233D018318B4230D001F556718B42CD
:103B88002CD018318B4229D018318B4226D01831CD
:103B98008B4223D018318B4220D018318B421DD054
:103BA80018318B421AD018318B4217D022498B42D8
:103BB80014D014318B4211D014318B420ED01431F1
:103BC8008B420BD014318B4208D014318B4205D074
:103BD80014318B4202D014318B4217D1116E0B680D
:103BE80023F480730B60906DD36D03F01F010123E4
:103BF8008B404360536E916E5960D36E33B1196830
:103C080021F480711960136F516F5960012382F894
:103C18003530002382F83430136D2BB110469847A5
:103C28000020E0E6012070470020DCE6100002409A
:103C3800280002404000024008540258134BDB6839
:103C480013F0040F07D1114BDB6803F0070383421D
:103C58001AD00120704710B50C4AD36823F0070327
:103C68001843D06000F07EF80446084B5B6813F4F4
:103C7800005F07D100F076F8001BB0F57A7FF4D921
:103C8800012000E0002010BD0020704700480258C5
:103C9800024AD36843F08073D360704700480258E3
:103CA800104B1B780BB90120704710B504464FF430
:103CB8007A70B0FBF3F30C4A1068B0FBF3F0FDF731
:103CC8008DFA68B90F2C01D901200AE0002221469B
:103CD8004FF0FF30FDF73EFA044B1C60002000E077
:103CE800012010BD00000020080000200400002072
:103CF80010B50320FDF71CFAFEF7CCF80F498B69C5
:103D0800C3F303230E4AD35C03F01F03D8408B6927
:103D180003F00F03D35C03F01F0320FA03F3094AEF
:103D28001360094B18600020FFF7BAFF10B1012497
:103D3800204610BD0446FCF7D5FFF9E700440258B9
:103D4800486600080C00002008000020034B1B7880
:103D5800034A11680B441360704700BF000000203D
:103D6800C40C0020014B1868704700BFC40C002029
:103D780038B50446FFF7F6FF0546B4F1FF3F02D019
:103D8800044B1B781C44FFF7EDFF401BA042FAD3FD
:103D980038BD00BF00000020014B1868000C7047B8
:103DA8000010005C034A536823F460030343536024
:103DB800704700BF0004005810B402685369916945
:103DC80041F00801916101688A6942F010028A6134
:103DD80001680A6822F001020A6001680C69294A30
:103DE80022400A6101688A6822F440428A6090F899
:103DF8008120D2B2042A0DD013F0200F0AD0D0F8B7
:103E0800842042F08002C0F8842001688A6942F068
:103E180020028A6190F88120D2B2032A0DD013F0D3
:103E2800400F0AD0D0F8842042F00402C0F8842061
:103E380001688A6942F040028A6113F4007F0AD05F
:103E4800D0F8842042F00102C0F8842001688A6911
:103E580042F400728A6113F4807F0AD0D0F884306B
:103E680043F00803C0F884300268936943F4807310
:103E780093610023A0F86230A0F86A305DF8044B23
:103E8800704700BF90FCFFFFC36B5B09C068083038
:103E9800C00803FB000070472DE9F04107460E46B5
:103EA80015461C46DDF8188000E0B4B13B685B6934
:103EB80036EA03030CBF01230023AB420AD1FFF704
:103EC80051FFA0EB0800A042EFD3B4F1FF3FECD0C4
:103ED800032000E00020BDE8F0810320FBE700009C
:103EE800002800F0B78070B5044600238362056897
:103EF8005C4B5D4E9D4218BFB54214BF012600269B
:103F080007D0A3F574439D4203D0C3680F2B00F27A
:103F1800A3802046FFF7B8FF2EB1544B9D4202D034
:103F2800082800F29B804F4A4F4B9D4218BF95428C
:103F380003D003F580639D4202D1102800F29080DF
:103F480094F88130F3B1022384F881302268136831
:103F580023F00103136021688A6802F4F812A36948
:103F6800B3F1806F14D0636813F4800F23D0E36833
:103F7800062B20D921680B6823F48073206D034336
:103F88000B601DE084F880302046FCF759FFDAE723
:103F98006368B3F5800F06D0002BE4D1A36BB3F1AF
:103FA800805FE0D102E0A06B0028F5D10B6843F4F4
:103FB80080530B60D7E721680B6823F480730B608C
:103FC800E369A16A0B431343E26B1343E168226878
:103FD8000B439360636B626A1343A26B1343A2693A
:103FE80013432269134362691343226A13436268C5
:103FF8001343E26C1343A2681343A26C1343A16DED
:1040080022680B43D36063686BB92268936823F412
:10401800C05343F4006393602268936823F4C06339
:1040280043F4806393602268136D23F001031365E2
:10403800636813F4800F06D02268D36823F0004326
:10404800616D0B43D3600020C4F88400012384F819
:10405800813070BD012070470120FAE70120F8E7A0
:104068000120F6E70030014000380040003C0040E5
:104078002DE9F04782B004468A4691461D46D0F89D
:104088000080FFF76FFE94F88160F6B2012E40F0D1
:1040980048810746B9F1000F18BFBAF1000F00F0C8
:1040A800418194F88030012B00F04081012384F88D
:1040B8008030032384F881300023C4F88430C4F8A6
:1040C8005CA0A4F86090A4F862906366A4F86830D5
:1040D800A4F86A3063672367A368B3F5C02F1CD0C0
:1040E8002268D36823F4C02343F40033D3602368E1
:1040F80059688F4A0A4049EA02025A6022681368DE
:1041080043F0010313606368B3F5800F0BD0E368D5
:104118000F2B1BD8072B4DD8ACE02268136843F44B
:1041280000631360E3E72268136843F400731360C5
:10413800EDE7E26D12681A62E36D0433E365B4F8E3
:10414800622092B2013A92B2A4F86220B4F86230C6
:104158009BB2002B00F0C98023685A6912F0020F45
:10416800E7D1FFF7FFFDC01BA84202D3B5F1FF3F1F
:1041780001D1002DEAD12046FFF71EFED4F8843085
:1041880043F48073C4F88430012384F88130002319
:1041980084F880300326C5E0E36D1B88A8F820303A
:1041A800E36D0233E365B4F862309BB2013B9BB226
:1041B800A4F86230B4F862309BB2002B00F095800E
:1041C8002268536913F0020F15D0B4F862309BB21D
:1041D800012BE1D9E36B002BDED0E36D1B68136282
:1041E800E36D0433E365B4F862309BB2023B9BB2E3
:1041F800A4F86230DEE7FFF7B5FDC01BA84202D382
:10420800B5F1FF3F01D1002DD4D12046FFF7D4FDF1
:10421800D4F8843043F48073C4F88430012384F8DC
:104228008130002384F8803003267BE0B4F86230C4
:104238009BB2012B10D9E36B73B1E36D1B88A8F80F
:104248002030E36D0233E365B4F862309BB2023B81
:104258009BB2A4F862300DE0E36D1B7882F8203041
:10426800E36D0133E365B4F862309BB2013B9BB266
:10427800A4F86230B4F862309BB2002B35D02268C3
:10428800536913F0020F15D0B4F862309BB2032BB8
:10429800CCD9E36B402BC9D9E36D1B681362E36D7E
:1042A8000433E365B4F862309BB2043B9BB2A4F8D4
:1042B8006230DFE7FFF756FDC01BA84202D3B5F115
:1042C800FF3F01D1002DD5D12046FFF775FDD4F869
:1042D800843043F48073C4F88430012384F8813037
:1042E800002384F8803003261CE000972B46002228
:1042F80008212046FFF7D0FD28B1D4F8843043F0D8
:104308002003C4F884302046FFF756FD012384F8C3
:104318008130002384F88030D4F8843013B9002623
:1043280000E00226304602B0BDE8F0870226F9E731
:104338000000FFFF704770477047704708B5806BF3
:104348000023A0F86A30A0F86230012380F8813099
:10435800FFF7F3FF08BD70472DE9F84304460668E8
:104368003269736902EA0305D6F8089090F88170FB
:10437800FFB213F4006F02D012F0080F3FD105F01E
:104388006403042B42D0002305F04508B8F1010F5F
:1043980044D005F02602022A45D0002B46D115F05C
:1043A800080F79D02268936943F008039361226863
:1043B800936943F0100393612268936943F400639F
:1043C80093612268136923F00803136123689B68CB
:1043D80013F4404F3BD02046FFF7EEFC012384F84E
:1043E8008130D4F88430002B4AD1052F4CD0042FCB
:1043F8004ED0032F1AD12046FFF79CFF16E0B36971
:1044080043F40063B361FFF7A6FF0FE0636F204634
:104418009847236F204698470123B5E7236F204626
:1044280098474346B5E7636F20469847BDE8F88349
:10443800072B1CD9636E328E1A80636E0233636653
:10444800B4F86A309BB2013B9BB2A4F86A30B4F866
:104458006A309BB2002BBED0E3680F2BE8D92268E4
:10446800636E126B1A60636E04336366E8E7226852
:10447800636E92F830201A70636E01336366DFE76B
:104488002046FFF75AFFD1E72046FFF755FFCDE753
:104498002046FFF750FFC9E715F4587FC6D015F03E
:1044A800400F0AD0D4F8843043F00403C4F88430B1
:1044B8002268936943F04003936115F4007F0AD0A2
:1044C800D4F8843043F00103C4F884302268936937
:1044D80043F40073936115F4807F0AD0D4F88430D4
:1044E80043F00803C4F884302268936943F4807366
:1044F800936115F0200F0AD0D4F8843043F080037C
:10450800C4F884302268936943F020039361D4F897
:104518008430002B8AD02268136823F001031360CB
:10452800226811691A4B0B40136109F44049B9F527
:10453800404F25D12268936823F440439360E36F8A
:104548005BB1144A1A65E06FFFF740FA28B1D4F856
:10455800843043F04003C4F88430A36F002B3FF449
:1045680065AF0C4A1A65A06FFFF730FA00283FF4D0
:104578005DAFD4F8843043F04003C4F8843055E785
:10458800012384F881302046FFF7D7FE4EE700BFAD
:1045980094FCFFFF4543000810B4036A046A24F042
:1045A80001040462846924F0F00C4CEA021223F03E
:1045B8000A030B43826103625DF8044B704710B431
:1045C800036A046A24F010040462846924F4704CB9
:1045D8004CEA023223F0A00343EA0113826103622A
:1045E8005DF8044B704700008268034B13400B438F
:1045F80043F00703836070478FFFCFFF90F83D308B
:10460800DBB2012B35D1022380F83D3003681B4A09
:10461800B3F1804F18BF93421DD0A2F57C4293425C
:1046280019D002F58062934215D002F58062934258
:1046380011D002F5784293420DD0A2F56C42934214
:1046480009D002F59432934205D01A6842F001026B
:104658001A60002070479968094A0A40062A18BF5C
:10466800B2F5803F07D01A6842F001021A600020B4
:104678007047012070470020704700BF00000140CC
:104688000700010030B503683D4A904214BF4FF05F
:10469800000E4FF0010EB0F1804F14BF72464EF07D
:1046A8000102AAB9374CA04214BF00240124364D98
:1046B800A8420DD064B904F1804404F58234A042C4
:1046C80014BF0024012405F50065A84200D01CB1E0
:1046D80023F070034C68234312BB2A4A904214BF4C
:1046E80000220122284CA0421AD0CAB902F1804205
:1046F80002F58232904214BF0022012204F50064C0
:10470800A0420DD062B9214A904214BF0022012272
:1047180004F59A34A04203D012B91D4A904204D13C
:1047280023F4407CCB6843EA0C0323F080034A69F6
:10473800134303608A68C2620A688262154A90421B
:1047480014BF73464EF0010363B9104B984214BF6F
:104758000023012302F57052904203D013B90C4B89
:10476800984201D10B69036301234361036913F084
:10477800010F03D0036923F00103036130BD00BFBB
:1047880000000140000800400004004000440140CF
:10479800004801400004014060B310B5044690F899
:1047A8003D3013B3022384F83D30214651F8040B01
:1047B800FFF768FF012384F8483084F83E3084F816
:1047C8003F3084F8403084F8413084F8423084F82F
:1047D800433084F8443084F8453084F8463084F80F
:1047E800473084F83D30002010BD80F83C30FCF79D
:1047F8007BFBD7E70120704710B4846824F47F4C12
:1048080042EA03220A4342EA0C0282605DF8044B42
:104818007047000090F83C30012B00F08F8010B5F5
:104828000446012380F83C30022380F83D300268BA
:104838009068434B034093600B68702B55D031D878
:10484800502B6CD00CD9602B2AD1CA6849682068D3
:10485800FFF7B5FE60212068FFF7C6FE002035E0AF
:10486800402B0AD1CA6849682068FFF795FE4021A5
:104878002068FFF7B9FE002028E05BD8202B07D07E
:1048880003D9302B04D0012020E00BB1102B05D127
:1048980019462068FFF7A8FE002017E0012015E060
:1048A800012013E0B3F5005F2CD00BD9254A9342C1
:1048B800EED012D9244A9342EAD010329342E7D07C
:1048C800012003E0B3F5805F36D10020012384F88E
:1048D8003D30002384F83C3010BDB3F5801FD7D09D
:1048E800B3F1101FD4D00120F0E7CB684A6889687B
:1048F8002068FFF781FF2268936843F0770393608D
:104908000020E3E7CB684A6889682068FFF774FFEE
:104918002268936843F4804393600020D6E7CA680E
:1049280049682068FFF738FE50212068FFF75CFED1
:104938000020CBE70120C9E70120C7E70220704724
:104948008800CEFF200010003000100090F83C30A6
:10495800012B45D070B4012380F83C30022380F845
:104968003D3003685A689C681E4E1F4DAB4218BF05
:10497800B34203D122F470024D682A4322F0700238
:104988000D682A435A600368164AB3F1804F18BF6E
:10499800934217D0A2F57C42934213D002F580626D
:1049A80093420FD002F5806293420BD002F5784211
:1049B800934207D0A2F56C42934203D002F5943299
:1049C800934204D124F080048A6814439C60012334
:1049D80080F83D30002380F83C30184670BC7047A2
:1049E800022070470000014000040140026852E8BC
:1049F800003F23F4907342E800310029F6D10268A1
:104A080002F1080353E8001F0D4B0B40083242E83F
:104A180000310029F3D1C36E012B06D02023C0F842
:104A28008C300023C36643677047026852E8003F32
:104A380023F0100342E800310029F6D1EEE700BF69
:104A4800FEFFFFEF704708B5026852E8003F23F009
:104A5800400342E800310029F6D12023C0F888300D
:104A680000238367FFF7EEFF08BD704708B5806B2A
:104A78000023A0F85E30A0F85630FFF7F6FF08BD17
:104A88007047000070B504460168CB6908688D68F6
:104A980040F60F021A4008D113F0200F05D010F08D
:104AA800200F34D115F0805F31D12AB18B4A2A40CA
:104AB80033D18B4E304230D1E26E012A00F0C680ED
:104AC80013F4801F03D015F4800F40F09B8113F07E
:104AD800800F07D010F0800F40F09B8115F4000F75
:104AE80040F0978113F0400F03D010F0400F40F0D2
:104AF800978113F4000F03D010F0804F40F0948199
:104B080013F0807F02D00028C0F2928170BD636FDD
:104B1800002BFBD020469847F8E713F0010F09D087
:104B280010F4807F06D001260E62D4F8901031432D
:104B3800C4F8901013F0020F0BD015F0010F08D035
:104B4800216802260E62D4F8901041F00401C4F8DE
:104B5800901013F0040F0BD015F0010F08D0216846
:104B680004260E62D4F8901041F00201C4F89010A7
:104B780013F0080F0BD010F0200F00D13AB12268C3
:104B880008211162D4F890200A43C4F8902013F445
:104B9800006F0CD010F0806F09D022684FF40061CC
:104BA8001162D4F8902042F02002C4F89020D4F882
:104BB8009020002AAAD013F0200F09D010F0200F5F
:104BC80002D115F0805F03D0636F0BB12046984780
:104BD800D4F8902023689B6813F0400F02D112F09C
:104BE800280F2CD02046FFF701FF23689B6813F09D
:104BF800400F20D0226802F1080353E8003F23F059
:104C08004003083242E800310029F3D1D4F880305B
:104C18006BB1344A1A65D4F88000FEF7D7FE002835
:104C28003FF474AFD4F88000036D98476EE72046D0
:104C3800FFF71BFF6AE72046FFF717FF66E72046E6
:104C4800FFF713FF0023C4F890305FE713F0100F4D
:104C58003FF436AF10F0100F3FF432AF10230B6261
:104C680023689B6813F0400F00F09280D4F88020EE
:104C780013681D481D498B4218BF834238D018312C
:104C88008B4235D018318B4232D018318B422FD01D
:104C980018318B422CD018318B4229D018318B42D5
:104CA80026D001F556718B4222D018318B421FD085
:104CB80018318B421CD018318B4219D018318B42D5
:104CC80016D018318B4213D018318B4210D01831BE
:104CD8008B420DD05B689BB20CE000BF0100001056
:104CE80020010004754A0008100002402800024014
:104CF8005B689BB2002B3FF409AFB4F85C10994293
:104D08007FF604AFA4F85E30D369B3F5807F32D064
:104D1800226852E8003F23F4807342E800310029FA
:104D2800F6D1226802F1080353E8003F23F001039B
:104D3800083242E800310029F3D1226802F1080361
:104D480053E8003F23F04003083242E800310029CD
:104D5800F3D12023C4F88C300023E366226852E89C
:104D6800003F23F0100342E800310029F6D1D4F8BF
:104D78008000FEF78BFC02232367B4F85C10B4F8BC
:104D88005E309BB2C91A89B22046FFF779FEBDE6AC
:104D9800B4F85C10B4F85E309BB2C91A89B2B4F8A2
:104DA8005E309BB2002B3FF4B1AE00293FF4AEAEAB
:104DB800226852E8003F23F4907342E8003000284C
:104DC800F6D1226802F1080353E8000F1A4B03409A
:104DD800083242E800300028F3D12023C4F88C3090
:104DE8000023E3666367226852E8003F23F010035C
:104DF80042E800300028F6D1022323672046FFF757
:104E08003FFE83E64FF480130B62204601F058F80A
:104E18007CE6A36F002B3FF479AE2046984775E6F1
:104E28002046FFF710FE71E6204601F04BF86DE6CC
:104E3800204601F046F869E6FEFFFFEF08B5B0F836
:104E48006030D0F88C20222A05D00268936943F09C
:104E58000803936108BD0268516ADBB2826D0B409A
:104E68001370836D01338365B0F85E309BB2013BEC
:104E78009BB2A0F85E30B0F85E309BB2002BE9D14F
:104E8800026852E8003F23F4907342E80031002999
:104E9800F6D1026802F1080353E8003F23F001034A
:104EA800083242E800310029F3D12023C0F88C30C1
:104EB8000023436703670368164A93420CD05B6874
:104EC80013F4000F08D0026852E8003F23F0806313
:104ED80042E800310029F6D1C36E012B16D1002318
:104EE800C366026852E8003F23F0100342E800312D
:104EF8000029F6D10368DA6912F0100F01D01022E8
:104F08001A62B0F85C10FFF7BBFDA3E7FBF79EFC45
:104F1800A0E700BF000C005808B5B0F86020D0F832
:104F28008C30222B05D00268936943F00803936103
:104F380008BD03685B6A816D13400B80836D023383
:104F48008365B0F85E309BB2013B9BB2A0F85E303F
:104F5800B0F85E309BB2002BEAD1026852E8003FFD
:104F680023F4907342E800310029F6D1026802F177
:104F7800080353E8003F23F00103083242E80031F8
:104F88000029F3D12023C0F88C300023436703673E
:104F98000368164A93420CD05B6813F4000F08D0DC
:104FA800026852E8003F23F0806342E8003100299C
:104FB800F6D1C36E012B16D10023C366026852E8EE
:104FC800003F23F0100342E800310029F6D10368BE
:104FD800DA6912F0100F01D010221A62B0F85C10D2
:104FE800FFF74EFDA4E7FBF731FCA1E7000C0058E2
:104FF8002DE9F843B0F860600368DD69D3F80090E4
:10500800D3F80880D0F88C20222A05D09A6942F07B
:1050180008029A61BDE8F8830446B0F8687008E0B1
:10502800D4F89030002B4CD1B4F85E309BB2002BF2
:105038004ED0002F00F0988015F0200F00F09480DB
:105048002368596AF3B2A26D0B401370A36D013344
:10505800A365B4F85E309BB2013B9BB2A4F85E3006
:105068002368DD6915F0070FDED015F0010F09D0B0
:1050780019F4807F06D001221A62D4F890301343C5
:10508800C4F8903015F0020F0BD018F0010F08D0BB
:10509800236802221A62D4F8903043F00403C4F85B
:1050A800903015F0040FBBD018F0010FB8D023686A
:1050B80004221A62D4F8903043F00203C4F8903006
:1050C800AEE72046FFF7D1FC0023C4F89030ABE7E9
:1050D800226852E8003F23F4807342E80031002937
:1050E800F6D1226802F1080353E8001F304B0B4049
:1050F800083242E800310029F3D12023C4F88C306B
:1051080000236367236723682A4A934203D05B68B6
:1051180013F4000F06D1E36E012B0DD02046FBF7E8
:1051280095FB86E7226852E8003F23F0806342E857
:1051380000310029F6D1EEE70023E366226852E841
:10514800003F23F0100342E800310029F6D123681C
:10515800DA6912F0100F01D010221A62B4F85C104C
:105168002046FFF78DFC64E7B4F85E309BB2002B55
:105178003FF450AFB4F868209A427FF64BAF2268EC
:1051880002F1080353E8003F23F08053083242E855
:1051980000310029F3D1084B6367226852E8003FC9
:1051A80043F0200342E800310029F6D132E700BF7E
:1051B800FEFFFFEF000C0058454E00082DE9F843AC
:1051C800B0F860600368DD69D3F80090D3F8088010
:1051D800D0F88C20222A05D09A6942F008029A61F8
:1051E800BDE8F8830446B0F8687008E0D4F8903059
:1051F800002B4BD1B4F85E309BB2002B4DD0002F62
:1052080000F0978015F0200F00F0938023685B6A08
:10521800A26D33401380A36D0233A365B4F85E30EA
:105228009BB2013B9BB2A4F85E302368DD6915F0A0
:10523800070FDFD015F0010F09D019F4807F06D0D1
:1052480001221A62D4F890301343C4F8903015F054
:10525800020F0BD018F0010F08D0236802221A623F
:10526800D4F8903043F00403C4F8903015F0040FDC
:10527800BCD018F0010FB9D0236804221A62D4F800
:10528800903043F00203C4F89030AFE72046FFF7B0
:10529800ECFB0023C4F89030ACE7226852E8003FEA
:1052A80023F4807342E800310029F6D1226802F124
:1052B800080353E8001F304B0B40083242E8003126
:1052C8000029F3D12023C4F88C30002363672367B7
:1052D80023682A4A934203D05B6813F4000F06D16F
:1052E800E36E012B0DD02046FBF7B0FA87E7226862
:1052F80052E8003F23F0806342E800310029F6D1EC
:10530800EEE70023E366226852E8003F23F010032B
:1053180042E800310029F6D12368DA6912F0100F4B
:1053280001D010221A62B4F85C102046FFF7A8FBDF
:1053380065E7B4F85E309BB2002B3FF451AFB4F888
:1053480068209A427FF64CAF226802F1080353E8BE
:10535800003F23F08053083242E800310029F3D19E
:10536800074B6367226852E8003F43F0200342E896
:1053780000310029F6D133E7FEFFFFEF000C00589B
:10538800214F000870B586B0044601688368026939
:10539800134342691343C26913430868884A0240A9
:1053A80013430B602268536823F44053E1680B43AE
:1053B8005360A1692268834B9A4201D0236A19433A
:1053C8009068814B03400B4393602268D36A23F0B3
:1053D8000F03616A0B43D36222687C4B9A4221D047
:1053E8007B4B9A4200F08C807A4B9A4200F0A28064
:1053F800794B9A4200F0B580784B9A4200F0C88009
:10540800774B9A4200F0F480764B9A4200F019816B
:10541800754B9A4200F02C816A4B9A4200F03F810A
:10542800802333E0714B5B6D03F03803282B65D87C
:10543800DFE813F02900640064006400640064007D
:10544800640064004D01640064006400640064004A
:10545800640064002B00640064006400640064005D
:10546800640064005E00640064006400640064001A
:105478006400640060006400640064006400640008
:10548800640064006200012300E008234D498A4259
:1054980000F02F81E069B0F5004F00F0AF81202BBC
:1054A80000F20782202B00F25182DFE813F01E027F
:1054B80024024F024F0227024F024F024F022C02D2
:1054C8004F024F024F024F024F024F024F0231026A
:1054D8004F024F024F024F024F024F024F024F023C
:1054E8004F024F024F024F024F024F024F023D023E
:1054F8001023CBE72023C9E74023C7E78023C5E76C
:105508003A4B5B6D03F00703052B11D8DFE813F066
:105518000600E10008000A000C000E000023B5E7B1
:105528000823B3E71023B1E72023AFE74023ADE713
:105538008023ABE72D4B5B6D03F00703052B0ED8DB
:10554800DFE803F003C90507090B00239EE70823DA
:105558009CE710239AE7202398E7402396E78023C7
:1055680094E7224B5B6D03F00703052B0ED8DFE8A9
:1055780003F003B40507090B002387E7082385E731
:10558800102383E7202381E740237FE780237DE7FB
:10559800164B5B6D03F00703052B0ED8DFE803F00D
:1055A800039F0507090B002370E708236EE7102304
:1055B8006CE720236AE7402368E7802366E700BF9B
:1055C800F369FFCF000C0058FFF4FF1100100140F1
:1055D8000044004000480040004C0040005000409B
:1055E8000014014000780040007C0040004402584C
:1055F8007D4B5B6D03F03803282B20D8DFE803F0E0
:10560800151F1F1F1F1F1F1F711F1F1F1F1F1F1F5A
:10561800171F1F1F1F1F1F1F191F1F1F1F1F1F1FA0
:105628001B1F1F1F1F1F1F1F1D0001232EE70823FD
:105638002CE710232AE7202328E7402326E78023A6
:1056480024E7694B5B6D03F00703052B0ED8DFE8F1
:1056580003F0034A0507090B002317E7082315E79A
:10566800102313E7202311E740230FE780230DE7DA
:105678005D4B5B6D03F00703052B0ED8DFE803F0E5
:1056880003350507090B002300E70823FEE610236E
:10569800FCE62023FAE64023F8E68023F6E603F545
:1056A8000E339B6D03F00703052B0ED8DFE803F0DC
:1056B800031F0507090B0223E8E60823E6E6102383
:1056C800E4E62023E2E64023E0E68023DEE6042346
:1056D800DCE60423DAE60423D8E60423D6E604232A
:1056E800D4E60423D2E60423D0E60423CEE604233A
:1056F800CCE6202B27D8022BC0F01A81023B1E2BA8
:1057080000F21881DFE813F0500016015600160168
:10571800160116015B001601160116011601160185
:105728001601160160001601160116011601160170
:1057380016011601160116011601160116011601A9
:10574800160116016C00402B2CD14FF40040626A00
:10575800264B33F81220B0FBF2F3656805EB4501E0
:10576800994200F2E980B3EB053F00F2E78000269A
:1057780033463146FAF7B4FD090241EA10610002E6
:105788006B08C0182A46334641F10001FAF7A8FD14
:10579800A0F54072164B9A4200F2D2802368D86076
:1057A8003046D4E00120D2E0FDF750FC0028CED1ED
:1057B8000020CCE003A8FDF75BFC0498F6E76846F8
:1057C800FDF752FD0198F1E7074B1B6813F0200F16
:1057D80008D0054B1B68C3F3C1030648D840E5E76A
:1057E8000548B4E70348B2E70044025820660008B9
:1057F800FFFC0F000090D00300093D00202B15D8B6
:10580800202B00F29F80DFE803F031379D9D3A9D01
:105818009D9D3F9D9D9D9D9D9D9D449D9D9D9D9D67
:105828009D9D9D9D9D9D9D9D9D9D5000402B1BD1A7
:10583800626A4D4B33F81230B0FBF3F062685308DC
:1058480003EB4000B0FBF2F0A0F110024FF6EF734B
:105858009A4279D883B223F00F03C0F34200184369
:105868002368D860002072E0012070E0FCF778FD22
:105878000028DDD100206AE0FCF784FDF8E703A8E2
:10588800FDF7F6FB0498F3E76846FDF7EDFC019891
:10589800EEE7364B1B6813F0200F08D0334B1B681C
:1058A800C3F3C1033248D840E2E73248C0E7304882
:1058B800BEE7402B17D14FF40040626A2A4B33F8F9
:1058C8001230B0FBF3F0636800EB5300B0FBF3F069
:1058D800A0F110024FF6EF739A4242D8236880B2C3
:1058E800D860002033E0012031E0FCF739FD0028C2
:1058F800E3D100202BE0FCF745FDF8E703A8FDF70E
:10590800B7FB0498F3E76846FDF7AEFC0198EEE7AD
:10591800164B1B6813F0200F08D0144B1B68C3F3F9
:10592800C1031348D840E2E71248C6E71048C4E765
:1059380001200CE001200AE0012008E0012006E037
:10594800012004E0012002E0012000E00120012301
:10595800A4F86A30A4F8683000236367A36706B028
:1059680070BD0120F3E700BF20660008004402581C
:105978000090D00300093D00836A13F0080F06D099
:105988000268536823F40043816B0B435360836AB6
:1059980013F0010F06D00268536823F40033C16A7C
:1059A8000B435360836A13F0020F06D002685368F2
:1059B80023F48033016B0B435360836A13F0040FA5
:1059C80006D00268536823F48023416B0B4353606D
:1059D800836A13F0100F06D00268936823F480538B
:1059E800C16B0B439360836A13F0200F06D00268E3
:1059F800936823F40053016C0B439360836A13F09C
:105A0800400F0AD00268536823F48013416C0B439B
:105A18005360436CB3F5801F0BD0836A13F0800F7B
:105A280006D00268536823F40023C16C0B4353600B
:105A380070470268536823F4C003816C0B435360BA
:105A4800EBE72DE9F84305460E4617469946DDF87B
:105A580020802C68E46936EA04030CBF4FF0010C7F
:105A68004FF0000CBC453AD1B8F1FF3FF1D0FEF73A
:105A780079F9A0EB0900404534D8B8F1000F33D0CC
:105A88002B681A6812F0040FE3D0B6F1400218BF71
:105A98000122802EDDD0002ADBD0DA6912F0080F4F
:105AA80011D1DA6912F4006FD3D04FF400621A6290
:105AB8002846FEF79BFF2023C5F89030002385F881
:105AC800843003200CE008241C622846FEF78EFF71
